{
  "contractName": "Alchemy",
  "abi": [
    {
      "inputs": [],
      "stateMutability": "nonpayable",
      "type": "constructor"
    },
    {
      "anonymous": false,
      "inputs": [
        {
          "indexed": true,
          "internalType": "address",
          "name": "owner",
          "type": "address"
        },
        {
          "indexed": true,
          "internalType": "address",
          "name": "approved",
          "type": "address"
        },
        {
          "indexed": true,
          "internalType": "uint256",
          "name": "tokenId",
          "type": "uint256"
        }
      ],
      "name": "Approval",
      "type": "event"
    },
    {
      "anonymous": false,
      "inputs": [
        {
          "indexed": true,
          "internalType": "address",
          "name": "owner",
          "type": "address"
        },
        {
          "indexed": true,
          "internalType": "address",
          "name": "operator",
          "type": "address"
        },
        {
          "indexed": false,
          "internalType": "bool",
          "name": "approved",
          "type": "bool"
        }
      ],
      "name": "ApprovalForAll",
      "type": "event"
    },
    {
      "anonymous": false,
      "inputs": [
        {
          "indexed": true,
          "internalType": "address",
          "name": "previousOwner",
          "type": "address"
        },
        {
          "indexed": true,
          "internalType": "address",
          "name": "newOwner",
          "type": "address"
        }
      ],
      "name": "OwnershipTransferred",
      "type": "event"
    },
    {
      "anonymous": false,
      "inputs": [
        {
          "indexed": true,
          "internalType": "address",
          "name": "from",
          "type": "address"
        },
        {
          "indexed": true,
          "internalType": "address",
          "name": "to",
          "type": "address"
        },
        {
          "indexed": true,
          "internalType": "uint256",
          "name": "tokenId",
          "type": "uint256"
        }
      ],
      "name": "Transfer",
      "type": "event"
    },
    {
      "inputs": [
        {
          "internalType": "address",
          "name": "to",
          "type": "address"
        },
        {
          "internalType": "uint256",
          "name": "tokenId",
          "type": "uint256"
        }
      ],
      "name": "approve",
      "outputs": [],
      "stateMutability": "nonpayable",
      "type": "function"
    },
    {
      "inputs": [
        {
          "internalType": "address",
          "name": "owner",
          "type": "address"
        }
      ],
      "name": "balanceOf",
      "outputs": [
        {
          "internalType": "uint256",
          "name": "",
          "type": "uint256"
        }
      ],
      "stateMutability": "view",
      "type": "function",
      "constant": true
    },
    {
      "inputs": [
        {
          "internalType": "uint256",
          "name": "tokenId",
          "type": "uint256"
        }
      ],
      "name": "getApproved",
      "outputs": [
        {
          "internalType": "address",
          "name": "",
          "type": "address"
        }
      ],
      "stateMutability": "view",
      "type": "function",
      "constant": true
    },
    {
      "inputs": [
        {
          "internalType": "address",
          "name": "owner",
          "type": "address"
        },
        {
          "internalType": "address",
          "name": "operator",
          "type": "address"
        }
      ],
      "name": "isApprovedForAll",
      "outputs": [
        {
          "internalType": "bool",
          "name": "",
          "type": "bool"
        }
      ],
      "stateMutability": "view",
      "type": "function",
      "constant": true
    },
    {
      "inputs": [],
      "name": "name",
      "outputs": [
        {
          "internalType": "string",
          "name": "",
          "type": "string"
        }
      ],
      "stateMutability": "view",
      "type": "function",
      "constant": true
    },
    {
      "inputs": [],
      "name": "owner",
      "outputs": [
        {
          "internalType": "address",
          "name": "",
          "type": "address"
        }
      ],
      "stateMutability": "view",
      "type": "function",
      "constant": true
    },
    {
      "inputs": [
        {
          "internalType": "uint256",
          "name": "tokenId",
          "type": "uint256"
        }
      ],
      "name": "ownerOf",
      "outputs": [
        {
          "internalType": "address",
          "name": "",
          "type": "address"
        }
      ],
      "stateMutability": "view",
      "type": "function",
      "constant": true
    },
    {
      "inputs": [],
      "name": "renounceOwnership",
      "outputs": [],
      "stateMutability": "nonpayable",
      "type": "function"
    },
    {
      "inputs": [
        {
          "internalType": "address",
          "name": "from",
          "type": "address"
        },
        {
          "internalType": "address",
          "name": "to",
          "type": "address"
        },
        {
          "internalType": "uint256",
          "name": "tokenId",
          "type": "uint256"
        }
      ],
      "name": "safeTransferFrom",
      "outputs": [],
      "stateMutability": "nonpayable",
      "type": "function"
    },
    {
      "inputs": [
        {
          "internalType": "address",
          "name": "from",
          "type": "address"
        },
        {
          "internalType": "address",
          "name": "to",
          "type": "address"
        },
        {
          "internalType": "uint256",
          "name": "tokenId",
          "type": "uint256"
        },
        {
          "internalType": "bytes",
          "name": "_data",
          "type": "bytes"
        }
      ],
      "name": "safeTransferFrom",
      "outputs": [],
      "stateMutability": "nonpayable",
      "type": "function"
    },
    {
      "inputs": [
        {
          "internalType": "address",
          "name": "operator",
          "type": "address"
        },
        {
          "internalType": "bool",
          "name": "approved",
          "type": "bool"
        }
      ],
      "name": "setApprovalForAll",
      "outputs": [],
      "stateMutability": "nonpayable",
      "type": "function"
    },
    {
      "inputs": [],
      "name": "symbol",
      "outputs": [
        {
          "internalType": "string",
          "name": "",
          "type": "string"
        }
      ],
      "stateMutability": "view",
      "type": "function",
      "constant": true
    },
    {
      "inputs": [
        {
          "internalType": "uint256",
          "name": "index",
          "type": "uint256"
        }
      ],
      "name": "tokenByIndex",
      "outputs": [
        {
          "internalType": "uint256",
          "name": "",
          "type": "uint256"
        }
      ],
      "stateMutability": "view",
      "type": "function",
      "constant": true
    },
    {
      "inputs": [
        {
          "internalType": "address",
          "name": "owner",
          "type": "address"
        },
        {
          "internalType": "uint256",
          "name": "index",
          "type": "uint256"
        }
      ],
      "name": "tokenOfOwnerByIndex",
      "outputs": [
        {
          "internalType": "uint256",
          "name": "",
          "type": "uint256"
        }
      ],
      "stateMutability": "view",
      "type": "function",
      "constant": true
    },
    {
      "inputs": [],
      "name": "totalSupply",
      "outputs": [
        {
          "internalType": "uint256",
          "name": "",
          "type": "uint256"
        }
      ],
      "stateMutability": "view",
      "type": "function",
      "constant": true
    },
    {
      "inputs": [
        {
          "internalType": "address",
          "name": "from",
          "type": "address"
        },
        {
          "internalType": "address",
          "name": "to",
          "type": "address"
        },
        {
          "internalType": "uint256",
          "name": "tokenId",
          "type": "uint256"
        }
      ],
      "name": "transferFrom",
      "outputs": [],
      "stateMutability": "nonpayable",
      "type": "function"
    },
    {
      "inputs": [
        {
          "internalType": "address",
          "name": "newOwner",
          "type": "address"
        }
      ],
      "name": "transferOwnership",
      "outputs": [],
      "stateMutability": "nonpayable",
      "type": "function"
    },
    {
      "inputs": [
        {
          "internalType": "address",
          "name": "to",
          "type": "address"
        },
        {
          "internalType": "uint256",
          "name": "tokenId",
          "type": "uint256"
        },
        {
          "internalType": "string",
          "name": "uri",
          "type": "string"
        }
      ],
      "name": "safeMint",
      "outputs": [],
      "stateMutability": "nonpayable",
      "type": "function"
    },
    {
      "inputs": [
        {
          "internalType": "uint256",
          "name": "tokenId",
          "type": "uint256"
        }
      ],
      "name": "tokenURI",
      "outputs": [
        {
          "internalType": "string",
          "name": "",
          "type": "string"
        }
      ],
      "stateMutability": "view",
      "type": "function",
      "constant": true
    },
    {
      "inputs": [
        {
          "internalType": "bytes4",
          "name": "interfaceId",
          "type": "bytes4"
        }
      ],
      "name": "supportsInterface",
      "outputs": [
        {
          "internalType": "bool",
          "name": "",
          "type": "bool"
        }
      ],
      "stateMutability": "view",
      "type": "function",
      "constant": true
    }
  ],
  "bytecode": "0x6080604052620186a0600c553480156200001857600080fd5b506040518060400160405280600781526020017f416c6368656d79000000000000000000000000000000000000000000000000008152506040518060400160405280600381526020017f414c430000000000000000000000000000000000000000000000000000000000815250816000908162000096919062000419565b508060019081620000a8919062000419565b505050620000cb620000bf620000d160201b60201c565b620000d960201b60201c565b62000500565b600033905090565b6000600b60009054906101000a900473ffffffffffffffffffffffffffffffffffffffff16905081600b60006101000a81548173ffffffffffffffffffffffffffffffffffffffff021916908373ffffffffffffffffffffffffffffffffffffffff1602179055508173ffffffffffffffffffffffffffffffffffffffff168173ffffffffffffffffffffffffffffffffffffffff167f8be0079c531659141344cd1fd0a4f28419497f9722a3daafe3b4186f6b6457e060405160405180910390a35050565b600081519050919050565b7f4e487b7100000000000000000000000000000000000000000000000000000000600052604160045260246000fd5b7f4e487b7100000000000000000000000000000000000000000000000000000000600052602260045260246000fd5b600060028204905060018216806200022157607f821691505b602082108103620002375762000236620001d9565b5b50919050565b60008190508160005260206000209050919050565b60006020601f8301049050919050565b600082821b905092915050565b600060088302620002a17fffffffffffffffffffffffffffffffffffffffffffffffffffffffffffffffff8262000262565b620002ad868362000262565b95508019841693508086168417925050509392505050565b6000819050919050565b6000819050919050565b6000620002fa620002f4620002ee84620002c5565b620002cf565b620002c5565b9050919050565b6000819050919050565b6200031683620002d9565b6200032e620003258262000301565b8484546200026f565b825550505050565b600090565b6200034562000336565b620003528184846200030b565b505050565b5b818110156200037a576200036e6000826200033b565b60018101905062000358565b5050565b601f821115620003c95762000393816200023d565b6200039e8462000252565b81016020851015620003ae578190505b620003c6620003bd8562000252565b83018262000357565b50505b505050565b600082821c905092915050565b6000620003ee60001984600802620003ce565b1980831691505092915050565b6000620004098383620003db565b9150826002028217905092915050565b62000424826200019f565b67ffffffffffffffff81111562000440576200043f620001aa565b5b6200044c825462000208565b620004598282856200037e565b600060209050601f8311600181146200049157600084156200047c578287015190505b620004888582620003fb565b865550620004f8565b601f198416620004a1866200023d565b60005b82811015620004cb57848901518255600182019150602085019450602081019050620004a4565b86831015620004eb5784890151620004e7601f891682620003db565b8355505b6001600288020188555050505b505050505050565b6139e980620005106000396000f3fe608060405234801561001057600080fd5b506004361061012c5760003560e01c806370a08231116100ad578063b88d4fde11610071578063b88d4fde14610343578063c87b56dd1461035f578063cd279c7c1461038f578063e985e9c5146103ab578063f2fde38b146103db5761012c565b806370a08231146102b1578063715018a6146102e15780638da5cb5b146102eb57806395d89b4114610309578063a22cb465146103275761012c565b806323b872dd116100f457806323b872dd146101e95780632f745c591461020557806342842e0e146102355780634f6ccce7146102515780636352211e146102815761012c565b806301ffc9a71461013157806306fdde0314610161578063081812fc1461017f578063095ea7b3146101af57806318160ddd146101cb575b600080fd5b61014b6004803603810190610146919061226b565b6103f7565b60405161015891906122b3565b60405180910390f35b610169610409565b6040516101769190612367565b60405180910390f35b610199600480360381019061019491906123bf565b61049b565b6040516101a6919061242d565b60405180910390f35b6101c960048036038101906101c49190612474565b610520565b005b6101d3610637565b6040516101e091906124c3565b60405180910390f35b61020360048036038101906101fe91906124de565b610644565b005b61021f600480360381019061021a9190612474565b6106a4565b60405161022c91906124c3565b60405180910390f35b61024f600480360381019061024a91906124de565b610749565b005b61026b600480360381019061026691906123bf565b610769565b60405161027891906124c3565b60405180910390f35b61029b600480360381019061029691906123bf565b6107da565b6040516102a8919061242d565b60405180910390f35b6102cb60048036038101906102c69190612531565b61088b565b6040516102d891906124c3565b60405180910390f35b6102e9610942565b005b6102f36109ca565b604051610300919061242d565b60405180910390f35b6103116109f4565b60405161031e9190612367565b60405180910390f35b610341600480360381019061033c919061258a565b610a86565b005b61035d600480360381019061035891906126ff565b610a9c565b005b610379600480360381019061037491906123bf565b610afe565b6040516103869190612367565b60405180910390f35b6103a960048036038101906103a49190612823565b610b10565b005b6103c560048036038101906103c09190612892565b610ba5565b6040516103d291906122b3565b60405180910390f35b6103f560048036038101906103f09190612531565b610c39565b005b600061040282610d30565b9050919050565b60606000805461041890612901565b80601f016020809104026020016040519081016040528092919081815260200182805461044490612901565b80156104915780601f1061046657610100808354040283529160200191610491565b820191906000526020600020905b81548152906001019060200180831161047457829003601f168201915b5050505050905090565b60006104a682610daa565b6104e5576040517f08c379a00000000000000000000000000000000000000000000000000000000081526004016104dc906129a4565b60405180910390fd5b6004600083815260200190815260200160002060009054906101000a900473ffffffffffffffffffffffffffffffffffffffff169050919050565b600061052b826107da565b90508073ffffffffffffffffffffffffffffffffffffffff168373ffffffffffffffffffffffffffffffffffffffff160361059b576040517f08c379a000000000000000000000000000000000000000000000000000000000815260040161059290612a36565b60405180910390fd5b8073ffffffffffffffffffffffffffffffffffffffff166105ba610e16565b73ffffffffffffffffffffffffffffffffffffffff1614806105e957506105e8816105e3610e16565b610ba5565b5b610628576040517f08c379a000000000000000000000000000000000000000000000000000000000815260040161061f90612ac8565b60405180910390fd5b6106328383610e1e565b505050565b6000600880549050905090565b61065561064f610e16565b82610ed7565b610694576040517f08c379a000000000000000000000000000000000000000000000000000000000815260040161068b90612b5a565b60405180910390fd5b61069f838383610fb5565b505050565b60006106af8361088b565b82106106f0576040517f08c379a00000000000000000000000000000000000000000000000000000000081526004016106e790612bec565b60405180910390fd5b600660008473ffffffffffffffffffffffffffffffffffffffff1673ffffffffffffffffffffffffffffffffffffffff168152602001908152602001600020600083815260200190815260200160002054905092915050565b61076483838360405180602001604052806000815250610a9c565b505050565b6000610773610637565b82106107b4576040517f08c379a00000000000000000000000000000000000000000000000000000000081526004016107ab90612c7e565b60405180910390fd5b600882815481106107c8576107c7612c9e565b5b90600052602060002001549050919050565b6000806002600084815260200190815260200160002060009054906101000a900473ffffffffffffffffffffffffffffffffffffffff169050600073ffffffffffffffffffffffffffffffffffffffff168173ffffffffffffffffffffffffffffffffffffffff1603610882576040517f08c379a000000000000000000000000000000000000000000000000000000000815260040161087990612d3f565b60405180910390fd5b80915050919050565b60008073ffffffffffffffffffffffffffffffffffffffff168273ffffffffffffffffffffffffffffffffffffffff16036108fb576040517f08c379a00000000000000000000000000000000000000000000000000000000081526004016108f290612dd1565b60405180910390fd5b600360008373ffffffffffffffffffffffffffffffffffffffff1673ffffffffffffffffffffffffffffffffffffffff168152602001908152602001600020549050919050565b61094a610e16565b73ffffffffffffffffffffffffffffffffffffffff166109686109ca565b73ffffffffffffffffffffffffffffffffffffffff16146109be576040517f08c379a00000000000000000000000000000000000000000000000000000000081526004016109b590612e3d565b60405180910390fd5b6109c8600061121b565b565b6000600b60009054906101000a900473ffffffffffffffffffffffffffffffffffffffff16905090565b606060018054610a0390612901565b80601f0160208091040260200160405190810160405280929190818152602001828054610a2f90612901565b8015610a7c5780601f10610a5157610100808354040283529160200191610a7c565b820191906000526020600020905b815481529060010190602001808311610a5f57829003601f168201915b5050505050905090565b610a98610a91610e16565b83836112e1565b5050565b610aad610aa7610e16565b83610ed7565b610aec576040517f08c379a0000000000000000000000000000000000000000000000000000000008152600401610ae390612b5a565b60405180910390fd5b610af88484848461144d565b50505050565b6060610b09826114a9565b9050919050565b610b18610e16565b73ffffffffffffffffffffffffffffffffffffffff16610b366109ca565b73ffffffffffffffffffffffffffffffffffffffff1614610b8c576040517f08c379a0000000000000000000000000000000000000000000000000000000008152600401610b8390612e3d565b60405180910390fd5b610b9683836115fa565b610ba08282611618565b505050565b6000600560008473ffffffffffffffffffffffffffffffffffffffff1673ffffffffffffffffffffffffffffffffffffffff16815260200190815260200160002060008373ffffffffffffffffffffffffffffffffffffffff1673ffffffffffffffffffffffffffffffffffffffff16815260200190815260200160002060009054906101000a900460ff16905092915050565b610c41610e16565b73ffffffffffffffffffffffffffffffffffffffff16610c5f6109ca565b73ffffffffffffffffffffffffffffffffffffffff1614610cb5576040517f08c379a0000000000000000000000000000000000000000000000000000000008152600401610cac90612e3d565b60405180910390fd5b600073ffffffffffffffffffffffffffffffffffffffff168173ffffffffffffffffffffffffffffffffffffffff1603610d24576040517f08c379a0000000000000000000000000000000000000000000000000000000008152600401610d1b90612ecf565b60405180910390fd5b610d2d8161121b565b50565b60007f780e9d63000000000000000000000000000000000000000000000000000000007bffffffffffffffffffffffffffffffffffffffffffffffffffffffff1916827bffffffffffffffffffffffffffffffffffffffffffffffffffffffff19161480610da35750610da282611685565b5b9050919050565b60008073ffffffffffffffffffffffffffffffffffffffff166002600084815260200190815260200160002060009054906101000a900473ffffffffffffffffffffffffffffffffffffffff1673ffffffffffffffffffffffffffffffffffffffff1614159050919050565b600033905090565b816004600083815260200190815260200160002060006101000a81548173ffffffffffffffffffffffffffffffffffffffff021916908373ffffffffffffffffffffffffffffffffffffffff160217905550808273ffffffffffffffffffffffffffffffffffffffff16610e91836107da565b73ffffffffffffffffffffffffffffffffffffffff167f8c5be1e5ebec7d5bd14f71427d1e84f3dd0314c0f7b2291e5b200ac8c7c3b92560405160405180910390a45050565b6000610ee282610daa565b610f21576040517f08c379a0000000000000000000000000000000000000000000000000000000008152600401610f1890612f61565b60405180910390fd5b6000610f2c836107da565b90508073ffffffffffffffffffffffffffffffffffffffff168473ffffffffffffffffffffffffffffffffffffffff161480610f6e5750610f6d8185610ba5565b5b80610fac57508373ffffffffffffffffffffffffffffffffffffffff16610f948461049b565b73ffffffffffffffffffffffffffffffffffffffff16145b91505092915050565b8273ffffffffffffffffffffffffffffffffffffffff16610fd5826107da565b73ffffffffffffffffffffffffffffffffffffffff161461102b576040517f08c379a000000000000000000000000000000000000000000000000000000000815260040161102290612ff3565b60405180910390fd5b600073ffffffffffffffffffffffffffffffffffffffff168273ffffffffffffffffffffffffffffffffffffffff160361109a576040517f08c379a000000000000000000000000000000000000000000000000000000000815260040161109190613085565b60405180910390fd5b6110a5838383611767565b6110b0600082610e1e565b6001600360008573ffffffffffffffffffffffffffffffffffffffff1673ffffffffffffffffffffffffffffffffffffffff168152602001908152602001600020600082825461110091906130d4565b925050819055506001600360008473ffffffffffffffffffffffffffffffffffffffff1673ffffffffffffffffffffffffffffffffffffffff16815260200190815260200160002060008282546111579190613108565b92505081905550816002600083815260200190815260200160002060006101000a81548173ffffffffffffffffffffffffffffffffffffffff021916908373ffffffffffffffffffffffffffffffffffffffff160217905550808273ffffffffffffffffffffffffffffffffffffffff168473ffffffffffffffffffffffffffffffffffffffff167fddf252ad1be2c89b69c2b068fc378daa952ba7f163c4a11628f55a4df523b3ef60405160405180910390a4611216838383611777565b505050565b6000600b60009054906101000a900473ffffffffffffffffffffffffffffffffffffffff16905081600b60006101000a81548173ffffffffffffffffffffffffffffffffffffffff021916908373ffffffffffffffffffffffffffffffffffffffff1602179055508173ffffffffffffffffffffffffffffffffffffffff168173ffffffffffffffffffffffffffffffffffffffff167f8be0079c531659141344cd1fd0a4f28419497f9722a3daafe3b4186f6b6457e060405160405180910390a35050565b8173ffffffffffffffffffffffffffffffffffffffff168373ffffffffffffffffffffffffffffffffffffffff160361134f576040517f08c379a0000000000000000000000000000000000000000000000000000000008152600401611346906131aa565b60405180910390fd5b80600560008573ffffffffffffffffffffffffffffffffffffffff1673ffffffffffffffffffffffffffffffffffffffff16815260200190815260200160002060008473ffffffffffffffffffffffffffffffffffffffff1673ffffffffffffffffffffffffffffffffffffffff16815260200190815260200160002060006101000a81548160ff0219169083151502179055508173ffffffffffffffffffffffffffffffffffffffff168373ffffffffffffffffffffffffffffffffffffffff167f17307eab39ab6107e8899845ad3d59bd9653f200f220920489ca2b5937696c318360405161144091906122b3565b60405180910390a3505050565b611458848484610fb5565b6114648484848461177c565b6114a3576040517f08c379a000000000000000000000000000000000000000000000000000000000815260040161149a9061323c565b60405180910390fd5b50505050565b60606114b482610daa565b6114f3576040517f08c379a00000000000000000000000000000000000000000000000000000000081526004016114ea906132ce565b60405180910390fd5b6000600a6000848152602001908152602001600020805461151390612901565b80601f016020809104026020016040519081016040528092919081815260200182805461153f90612901565b801561158c5780601f106115615761010080835404028352916020019161158c565b820191906000526020600020905b81548152906001019060200180831161156f57829003601f168201915b50505050509050600061159d611903565b905060008151036115b25781925050506115f5565b6000825111156115e75780826040516020016115cf92919061332a565b604051602081830303815290604052925050506115f5565b6115f08461191a565b925050505b919050565b6116148282604051806020016040528060008152506119c1565b5050565b61162182610daa565b611660576040517f08c379a0000000000000000000000000000000000000000000000000000000008152600401611657906133c0565b60405180910390fd5b80600a60008481526020019081526020016000209081611680919061358c565b505050565b60007f80ac58cd000000000000000000000000000000000000000000000000000000007bffffffffffffffffffffffffffffffffffffffffffffffffffffffff1916827bffffffffffffffffffffffffffffffffffffffffffffffffffffffff1916148061175057507f5b5e139f000000000000000000000000000000000000000000000000000000007bffffffffffffffffffffffffffffffffffffffffffffffffffffffff1916827bffffffffffffffffffffffffffffffffffffffffffffffffffffffff1916145b80611760575061175f82611a1c565b5b9050919050565b611772838383611a86565b505050565b505050565b600061179d8473ffffffffffffffffffffffffffffffffffffffff16611b98565b156118f6578373ffffffffffffffffffffffffffffffffffffffff1663150b7a026117c6610e16565b8786866040518563ffffffff1660e01b81526004016117e894939291906136b3565b6020604051808303816000875af192505050801561182457506040513d601f19601f820116820180604052508101906118219190613714565b60015b6118a6573d8060008114611854576040519150601f19603f3d011682016040523d82523d6000602084013e611859565b606091505b50600081510361189e576040517f08c379a00000000000000000000000000000000000000000000000000000000081526004016118959061323c565b60405180910390fd5b805181602001fd5b63150b7a0260e01b7bffffffffffffffffffffffffffffffffffffffffffffffffffffffff1916817bffffffffffffffffffffffffffffffffffffffffffffffffffffffff1916149150506118fb565b600190505b949350505050565b606060405180602001604052806000815250905090565b606061192582610daa565b611964576040517f08c379a000000000000000000000000000000000000000000000000000000000815260040161195b906137b3565b60405180910390fd5b600061196e611903565b9050600081511161198e57604051806020016040528060008152506119b9565b8061199884611bbb565b6040516020016119a992919061332a565b6040516020818303038152906040525b915050919050565b6119cb8383611d1b565b6119d8600084848461177c565b611a17576040517f08c379a0000000000000000000000000000000000000000000000000000000008152600401611a0e9061323c565b60405180910390fd5b505050565b60007f01ffc9a7000000000000000000000000000000000000000000000000000000007bffffffffffffffffffffffffffffffffffffffffffffffffffffffff1916827bffffffffffffffffffffffffffffffffffffffffffffffffffffffff1916149050919050565b611a91838383611ef4565b600073ffffffffffffffffffffffffffffffffffffffff168373ffffffffffffffffffffffffffffffffffffffff1603611ad357611ace81611ef9565b611b12565b8173ffffffffffffffffffffffffffffffffffffffff168373ffffffffffffffffffffffffffffffffffffffff1614611b1157611b108382611f42565b5b5b600073ffffffffffffffffffffffffffffffffffffffff168273ffffffffffffffffffffffffffffffffffffffff1603611b5457611b4f816120af565b611b93565b8273ffffffffffffffffffffffffffffffffffffffff168273ffffffffffffffffffffffffffffffffffffffff1614611b9257611b918282612180565b5b5b505050565b6000808273ffffffffffffffffffffffffffffffffffffffff163b119050919050565b606060008203611c02576040518060400160405280600181526020017f30000000000000000000000000000000000000000000000000000000000000008152509050611d16565b600082905060005b60008214611c34578080611c1d906137d3565b915050600a82611c2d919061384a565b9150611c0a565b60008167ffffffffffffffff811115611c5057611c4f6125d4565b5b6040519080825280601f01601f191660200182016040528015611c825781602001600182028036833780820191505090505b5090505b60008514611d0f57600182611c9b91906130d4565b9150600a85611caa919061387b565b6030611cb69190613108565b60f81b818381518110611ccc57611ccb612c9e565b5b60200101907effffffffffffffffffffffffffffffffffffffffffffffffffffffffffffff1916908160001a905350600a85611d08919061384a565b9450611c86565b8093505050505b919050565b600073ffffffffffffffffffffffffffffffffffffffff168273ffffffffffffffffffffffffffffffffffffffff1603611d8a576040517f08c379a0000000000000000000000000000000000000000000000000000000008152600401611d81906138f8565b60405180910390fd5b611d9381610daa565b15611dd3576040517f08c379a0000000000000000000000000000000000000000000000000000000008152600401611dca90613964565b60405180910390fd5b611ddf60008383611767565b6001600360008473ffffffffffffffffffffffffffffffffffffffff1673ffffffffffffffffffffffffffffffffffffffff1681526020019081526020016000206000828254611e2f9190613108565b92505081905550816002600083815260200190815260200160002060006101000a81548173ffffffffffffffffffffffffffffffffffffffff021916908373ffffffffffffffffffffffffffffffffffffffff160217905550808273ffffffffffffffffffffffffffffffffffffffff16600073ffffffffffffffffffffffffffffffffffffffff167fddf252ad1be2c89b69c2b068fc378daa952ba7f163c4a11628f55a4df523b3ef60405160405180910390a4611ef060008383611777565b5050565b505050565b6008805490506009600083815260200190815260200160002081905550600881908060018154018082558091505060019003906000526020600020016000909190919091505550565b60006001611f4f8461088b565b611f5991906130d4565b905060006007600084815260200190815260200160002054905081811461203e576000600660008673ffffffffffffffffffffffffffffffffffffffff1673ffffffffffffffffffffffffffffffffffffffff168152602001908152602001600020600084815260200190815260200160002054905080600660008773ffffffffffffffffffffffffffffffffffffffff1673ffffffffffffffffffffffffffffffffffffffff168152602001908152602001600020600084815260200190815260200160002081905550816007600083815260200190815260200160002081905550505b6007600084815260200190815260200160002060009055600660008573ffffffffffffffffffffffffffffffffffffffff1673ffffffffffffffffffffffffffffffffffffffff16815260200190815260200160002060008381526020019081526020016000206000905550505050565b600060016008805490506120c391906130d4565b90506000600960008481526020019081526020016000205490506000600883815481106120f3576120f2612c9e565b5b90600052602060002001549050806008838154811061211557612114612c9e565b5b90600052602060002001819055508160096000838152602001908152602001600020819055506009600085815260200190815260200160002060009055600880548061216457612163613984565b5b6001900381819060005260206000200160009055905550505050565b600061218b8361088b565b905081600660008573ffffffffffffffffffffffffffffffffffffffff1673ffffffffffffffffffffffffffffffffffffffff168152602001908152602001600020600083815260200190815260200160002081905550806007600084815260200190815260200160002081905550505050565b6000604051905090565b600080fd5b600080fd5b60007fffffffff0000000000000000000000000000000000000000000000000000000082169050919050565b61224881612213565b811461225357600080fd5b50565b6000813590506122658161223f565b92915050565b60006020828403121561228157612280612209565b5b600061228f84828501612256565b91505092915050565b60008115159050919050565b6122ad81612298565b82525050565b60006020820190506122c860008301846122a4565b92915050565b600081519050919050565b600082825260208201905092915050565b60005b838110156123085780820151818401526020810190506122ed565b83811115612317576000848401525b50505050565b6000601f19601f8301169050919050565b6000612339826122ce565b61234381856122d9565b93506123538185602086016122ea565b61235c8161231d565b840191505092915050565b60006020820190508181036000830152612381818461232e565b905092915050565b6000819050919050565b61239c81612389565b81146123a757600080fd5b50565b6000813590506123b981612393565b92915050565b6000602082840312156123d5576123d4612209565b5b60006123e3848285016123aa565b91505092915050565b600073ffffffffffffffffffffffffffffffffffffffff82169050919050565b6000612417826123ec565b9050919050565b6124278161240c565b82525050565b6000602082019050612442600083018461241e565b92915050565b6124518161240c565b811461245c57600080fd5b50565b60008135905061246e81612448565b92915050565b6000806040838503121561248b5761248a612209565b5b60006124998582860161245f565b92505060206124aa858286016123aa565b9150509250929050565b6124bd81612389565b82525050565b60006020820190506124d860008301846124b4565b92915050565b6000806000606084860312156124f7576124f6612209565b5b60006125058682870161245f565b93505060206125168682870161245f565b9250506040612527868287016123aa565b9150509250925092565b60006020828403121561254757612546612209565b5b60006125558482850161245f565b91505092915050565b61256781612298565b811461257257600080fd5b50565b6000813590506125848161255e565b92915050565b600080604083850312156125a1576125a0612209565b5b60006125af8582860161245f565b92505060206125c085828601612575565b9150509250929050565b600080fd5b600080fd5b7f4e487b7100000000000000000000000000000000000000000000000000000000600052604160045260246000fd5b61260c8261231d565b810181811067ffffffffffffffff8211171561262b5761262a6125d4565b5b80604052505050565b600061263e6121ff565b905061264a8282612603565b919050565b600067ffffffffffffffff82111561266a576126696125d4565b5b6126738261231d565b9050602081019050919050565b82818337600083830152505050565b60006126a261269d8461264f565b612634565b9050828152602081018484840111156126be576126bd6125cf565b5b6126c9848285612680565b509392505050565b600082601f8301126126e6576126e56125ca565b5b81356126f684826020860161268f565b91505092915050565b6000806000806080858703121561271957612718612209565b5b60006127278782880161245f565b94505060206127388782880161245f565b9350506040612749878288016123aa565b925050606085013567ffffffffffffffff81111561276a5761276961220e565b5b612776878288016126d1565b91505092959194509250565b600067ffffffffffffffff82111561279d5761279c6125d4565b5b6127a68261231d565b9050602081019050919050565b60006127c66127c184612782565b612634565b9050828152602081018484840111156127e2576127e16125cf565b5b6127ed848285612680565b509392505050565b600082601f83011261280a576128096125ca565b5b813561281a8482602086016127b3565b91505092915050565b60008060006060848603121561283c5761283b612209565b5b600061284a8682870161245f565b935050602061285b868287016123aa565b925050604084013567ffffffffffffffff81111561287c5761287b61220e565b5b612888868287016127f5565b9150509250925092565b600080604083850312156128a9576128a8612209565b5b60006128b78582860161245f565b92505060206128c88582860161245f565b9150509250929050565b7f4e487b7100000000000000000000000000000000000000000000000000000000600052602260045260246000fd5b6000600282049050600182168061291957607f821691505b60208210810361292c5761292b6128d2565b5b50919050565b7f4552433732313a20617070726f76656420717565727920666f72206e6f6e657860008201527f697374656e7420746f6b656e0000000000000000000000000000000000000000602082015250565b600061298e602c836122d9565b915061299982612932565b604082019050919050565b600060208201905081810360008301526129bd81612981565b9050919050565b7f4552433732313a20617070726f76616c20746f2063757272656e74206f776e6560008201527f7200000000000000000000000000000000000000000000000000000000000000602082015250565b6000612a206021836122d9565b9150612a2b826129c4565b604082019050919050565b60006020820190508181036000830152612a4f81612a13565b9050919050565b7f4552433732313a20617070726f76652063616c6c6572206973206e6f74206f7760008201527f6e6572206e6f7220617070726f76656420666f7220616c6c0000000000000000602082015250565b6000612ab26038836122d9565b9150612abd82612a56565b604082019050919050565b60006020820190508181036000830152612ae181612aa5565b9050919050565b7f4552433732313a207472616e736665722063616c6c6572206973206e6f74206f60008201527f776e6572206e6f7220617070726f766564000000000000000000000000000000602082015250565b6000612b446031836122d9565b9150612b4f82612ae8565b604082019050919050565b60006020820190508181036000830152612b7381612b37565b9050919050565b7f455243373231456e756d657261626c653a206f776e657220696e646578206f7560008201527f74206f6620626f756e6473000000000000000000000000000000000000000000602082015250565b6000612bd6602b836122d9565b9150612be182612b7a565b604082019050919050565b60006020820190508181036000830152612c0581612bc9565b9050919050565b7f455243373231456e756d657261626c653a20676c6f62616c20696e646578206f60008201527f7574206f6620626f756e64730000000000000000000000000000000000000000602082015250565b6000612c68602c836122d9565b9150612c7382612c0c565b604082019050919050565b60006020820190508181036000830152612c9781612c5b565b9050919050565b7f4e487b7100000000000000000000000000000000000000000000000000000000600052603260045260246000fd5b7f4552433732313a206f776e657220717565727920666f72206e6f6e657869737460008201527f656e7420746f6b656e0000000000000000000000000000000000000000000000602082015250565b6000612d296029836122d9565b9150612d3482612ccd565b604082019050919050565b60006020820190508181036000830152612d5881612d1c565b9050919050565b7f4552433732313a2062616c616e636520717565727920666f7220746865207a6560008201527f726f206164647265737300000000000000000000000000000000000000000000602082015250565b6000612dbb602a836122d9565b9150612dc682612d5f565b604082019050919050565b60006020820190508181036000830152612dea81612dae565b9050919050565b7f4f776e61626c653a2063616c6c6572206973206e6f7420746865206f776e6572600082015250565b6000612e276020836122d9565b9150612e3282612df1565b602082019050919050565b60006020820190508181036000830152612e5681612e1a565b9050919050565b7f4f776e61626c653a206e6577206f776e657220697320746865207a65726f206160008201527f6464726573730000000000000000000000000000000000000000000000000000602082015250565b6000612eb96026836122d9565b9150612ec482612e5d565b604082019050919050565b60006020820190508181036000830152612ee881612eac565b9050919050565b7f4552433732313a206f70657261746f7220717565727920666f72206e6f6e657860008201527f697374656e7420746f6b656e0000000000000000000000000000000000000000602082015250565b6000612f4b602c836122d9565b9150612f5682612eef565b604082019050919050565b60006020820190508181036000830152612f7a81612f3e565b9050919050565b7f4552433732313a207472616e736665722066726f6d20696e636f72726563742060008201527f6f776e6572000000000000000000000000000000000000000000000000000000602082015250565b6000612fdd6025836122d9565b9150612fe882612f81565b604082019050919050565b6000602082019050818103600083015261300c81612fd0565b9050919050565b7f4552433732313a207472616e7366657220746f20746865207a65726f2061646460008201527f7265737300000000000000000000000000000000000000000000000000000000602082015250565b600061306f6024836122d9565b915061307a82613013565b604082019050919050565b6000602082019050818103600083015261309e81613062565b9050919050565b7f4e487b7100000000000000000000000000000000000000000000000000000000600052601160045260246000fd5b60006130df82612389565b91506130ea83612389565b9250828210156130fd576130fc6130a5565b5b828203905092915050565b600061311382612389565b915061311e83612389565b9250827fffffffffffffffffffffffffffffffffffffffffffffffffffffffffffffffff03821115613153576131526130a5565b5b828201905092915050565b7f4552433732313a20617070726f766520746f2063616c6c657200000000000000600082015250565b60006131946019836122d9565b915061319f8261315e565b602082019050919050565b600060208201905081810360008301526131c381613187565b9050919050565b7f4552433732313a207472616e7366657220746f206e6f6e20455243373231526560008201527f63656976657220696d706c656d656e7465720000000000000000000000000000602082015250565b60006132266032836122d9565b9150613231826131ca565b604082019050919050565b6000602082019050818103600083015261325581613219565b9050919050565b7f45524337323155524953746f726167653a2055524920717565727920666f722060008201527f6e6f6e6578697374656e7420746f6b656e000000000000000000000000000000602082015250565b60006132b86031836122d9565b91506132c38261325c565b604082019050919050565b600060208201905081810360008301526132e7816132ab565b9050919050565b600081905092915050565b6000613304826122ce565b61330e81856132ee565b935061331e8185602086016122ea565b80840191505092915050565b600061333682856132f9565b915061334282846132f9565b91508190509392505050565b7f45524337323155524953746f726167653a2055524920736574206f66206e6f6e60008201527f6578697374656e7420746f6b656e000000000000000000000000000000000000602082015250565b60006133aa602e836122d9565b91506133b58261334e565b604082019050919050565b600060208201905081810360008301526133d98161339d565b9050919050565b60008190508160005260206000209050919050565b60006020601f8301049050919050565b600082821b905092915050565b6000600883026134427fffffffffffffffffffffffffffffffffffffffffffffffffffffffffffffffff82613405565b61344c8683613405565b95508019841693508086168417925050509392505050565b6000819050919050565b600061348961348461347f84612389565b613464565b612389565b9050919050565b6000819050919050565b6134a38361346e565b6134b76134af82613490565b848454613412565b825550505050565b600090565b6134cc6134bf565b6134d781848461349a565b505050565b5b818110156134fb576134f06000826134c4565b6001810190506134dd565b5050565b601f82111561354057613511816133e0565b61351a846133f5565b81016020851015613529578190505b61353d613535856133f5565b8301826134dc565b50505b505050565b600082821c905092915050565b600061356360001984600802613545565b1980831691505092915050565b600061357c8383613552565b9150826002028217905092915050565b613595826122ce565b67ffffffffffffffff8111156135ae576135ad6125d4565b5b6135b88254612901565b6135c38282856134ff565b600060209050601f8311600181146135f657600084156135e4578287015190505b6135ee8582613570565b865550613656565b601f198416613604866133e0565b60005b8281101561362c57848901518255600182019150602085019450602081019050613607565b868310156136495784890151613645601f891682613552565b8355505b6001600288020188555050505b505050505050565b600081519050919050565b600082825260208201905092915050565b60006136858261365e565b61368f8185613669565b935061369f8185602086016122ea565b6136a88161231d565b840191505092915050565b60006080820190506136c8600083018761241e565b6136d5602083018661241e565b6136e260408301856124b4565b81810360608301526136f4818461367a565b905095945050505050565b60008151905061370e8161223f565b92915050565b60006020828403121561372a57613729612209565b5b6000613738848285016136ff565b91505092915050565b7f4552433732314d657461646174613a2055524920717565727920666f72206e6f60008201527f6e6578697374656e7420746f6b656e0000000000000000000000000000000000602082015250565b600061379d602f836122d9565b91506137a882613741565b604082019050919050565b600060208201905081810360008301526137cc81613790565b9050919050565b60006137de82612389565b91507fffffffffffffffffffffffffffffffffffffffffffffffffffffffffffffffff82036138105761380f6130a5565b5b600182019050919050565b7f4e487b7100000000000000000000000000000000000000000000000000000000600052601260045260246000fd5b600061385582612389565b915061386083612389565b9250826138705761386f61381b565b5b828204905092915050565b600061388682612389565b915061389183612389565b9250826138a1576138a061381b565b5b828206905092915050565b7f4552433732313a206d696e7420746f20746865207a65726f2061646472657373600082015250565b60006138e26020836122d9565b91506138ed826138ac565b602082019050919050565b60006020820190508181036000830152613911816138d5565b9050919050565b7f4552433732313a20746f6b656e20616c7265616479206d696e74656400000000600082015250565b600061394e601c836122d9565b915061395982613918565b602082019050919050565b6000602082019050818103600083015261397d81613941565b9050919050565b7f4e487b7100000000000000000000000000000000000000000000000000000000600052603160045260246000fdfea264697066735822122085544beb396124fadd173142e452d186b026a91b8d3ad08002be49adc0aeffa464736f6c634300080f0033",
  "immutableReferences": {},
  "source": "// SPDX-License-Identifier: MIT\npragma solidity ^0.8.4;\n\nimport \"openzeppelin-solidity/contracts/token/ERC721/ERC721.sol\";\nimport \"openzeppelin-solidity/contracts/token/ERC721/extensions/ERC721Enumerable.sol\";\nimport \"openzeppelin-solidity/contracts/token/ERC721/extensions/ERC721URIStorage.sol\";\nimport \"openzeppelin-solidity/contracts/access/Ownable.sol\";\nimport \"openzeppelin-solidity/contracts/utils/Counters.sol\";\n\ncontract Alchemy is ERC721, ERC721Enumerable, ERC721URIStorage, Ownable {\n    uint256 MAX_SUPPLY = 100000;\n\n    constructor() ERC721(\"Alchemy\", \"ALC\") {}\n\n    function safeMint(\n        address to,\n        uint256 tokenId,\n        string memory uri\n    ) public onlyOwner {\n        _safeMint(to, tokenId);\n        _setTokenURI(tokenId, uri);\n    }\n\n    // The following functions are overrides required by Solidity.\n\n    function _beforeTokenTransfer(\n        address from,\n        address to,\n        uint256 tokenId\n    ) internal override(ERC721, ERC721Enumerable) {\n        super._beforeTokenTransfer(from, to, tokenId);\n    }\n\n    function _burn(uint256 tokenId)\n        internal\n        override(ERC721, ERC721URIStorage)\n    {\n        super._burn(tokenId);\n    }\n\n    function tokenURI(uint256 tokenId)\n        public\n        view\n        override(ERC721, ERC721URIStorage)\n        returns (string memory)\n    {\n        return super.tokenURI(tokenId);\n    }\n\n    function supportsInterface(bytes4 interfaceId)\n        public\n        view\n        override(ERC721, ERC721Enumerable)\n        returns (bool)\n    {\n        return super.supportsInterface(interfaceId);\n    }\n}\n",
  "sourcePath": "/Users/hana/Mint_ERC721/SmartContractSample_Mint-ERC721/contracts/Alchemy.sol",
  "compiler": {
    "name": "solc",
    "version": "0.8.15+commit.e14f2714.Emscripten.clang"
  },
  "schemaVersion": "3.4.8",
  "updatedAt": "2022-10-07T11:13:39.626Z",
  "networkType": "ethereum",
  "devdoc": {
    "kind": "dev",
    "methods": {
      "approve(address,uint256)": {
        "details": "See {IERC721-approve}."
      },
      "balanceOf(address)": {
        "details": "See {IERC721-balanceOf}."
      },
      "getApproved(uint256)": {
        "details": "See {IERC721-getApproved}."
      },
      "isApprovedForAll(address,address)": {
        "details": "See {IERC721-isApprovedForAll}."
      },
      "name()": {
        "details": "See {IERC721Metadata-name}."
      },
      "owner()": {
        "details": "Returns the address of the current owner."
      },
      "ownerOf(uint256)": {
        "details": "See {IERC721-ownerOf}."
      },
      "renounceOwnership()": {
        "details": "Leaves the contract without owner. It will not be possible to call `onlyOwner` functions anymore. Can only be called by the current owner. NOTE: Renouncing ownership will leave the contract without an owner, thereby removing any functionality that is only available to the owner."
      },
      "safeTransferFrom(address,address,uint256)": {
        "details": "See {IERC721-safeTransferFrom}."
      },
      "safeTransferFrom(address,address,uint256,bytes)": {
        "details": "See {IERC721-safeTransferFrom}."
      },
      "setApprovalForAll(address,bool)": {
        "details": "See {IERC721-setApprovalForAll}."
      },
      "symbol()": {
        "details": "See {IERC721Metadata-symbol}."
      },
      "tokenByIndex(uint256)": {
        "details": "See {IERC721Enumerable-tokenByIndex}."
      },
      "tokenOfOwnerByIndex(address,uint256)": {
        "details": "See {IERC721Enumerable-tokenOfOwnerByIndex}."
      },
      "totalSupply()": {
        "details": "See {IERC721Enumerable-totalSupply}."
      },
      "transferFrom(address,address,uint256)": {
        "details": "See {IERC721-transferFrom}."
      },
      "transferOwnership(address)": {
        "details": "Transfers ownership of the contract to a new account (`newOwner`). Can only be called by the current owner."
      }
    },
    "version": 1
  },
  "userdoc": {
    "kind": "user",
    "methods": {},
    "version": 1
  }
}